:100000000C94E2010C94110A0C941B0A0C94FF014D
:100010000C94FF010C94D1090C94FF010C946C0911
:100020000C94FF010C94FF010C94FF010C94FF0150
:100030000C94FF010C94FF010C94FF010C94FF0140
:100040000C94FF010C94FF010C9486050C9405069A
:100050000C94EE050C9441060C94FF010C94FF01E6
:100060000C94C4060C94FF016364696E6F70737521
:1000700078585B0078CCDCFCECCC780030F0303089
:100080003030FC0078CC0C3860CCFC0078CC0C38DC
:100090000CCC78001C3C6CCCFE0C0C00FCC0F80CAA
:1000A0000CCC78003860C0F8CCCC7800FCCC0C18B4
:1000B0003060600078CCCC78CCCC780078CCCC7C2C
:1000C0000C1870003C66C0C0C0663C000000000018
:1000D0000000000000065F5F060000000007070048
:1000E00007070000147F7F147F7F1400242E6B6BA2
:1000F0003A120000466630180C666200307A4F5D96
:10010000377A48000407030000000000001C3E632B
:10011000410000000041633E1C000000082A3E1C14
:100120001C3E2A0808083E3E080800000080E060E7
:1001300000000000080808080808000000006060CF
:10014000000000006030180C060301003E7F71596A
:100150004D7F3E0040427F7F40400000627359491E
:100160006F660000226349497F360000181C165351
:100170007F7F5000276745457D3900003C7E4B4915
:1001800079300000030371790F070000367F494979
:100190007F360000064F49693F1E0000000066667A
:1001A000000000000080E66600000000081C3663C6
:1001B000410000002424242424240000004163364C
:1001C0001C080000020351590F0600003E7F415DEC
:1001D0005D1F1E007C7E13137E7C0000417F7F49E3
:1001E000497F36001C3E634141632200417F7F41CD
:1001F000633E1C00417F7F495D416300417F7F4931
:100200001D0103001C3E6341517372007F7F08088B
:100210007F7F000000417F7F41000000307040413F
:100220007F3F0100417F7F081C776300417F7F4152
:10023000406070007F7F0E1C0E7F7F007F7F060C6A
:10024000187F7F001C3E6341633E1C00417F7F4955
:10025000090F06001E3F21717F5E0000417F7F096C
:10026000197F6600266F4D597332000003417F7F6E
:10027000410300007F7F40407F7F00001F3F6060A0
:100280003F1F00007F7F3018307F7F0043673C189E
:100290003C674300074F78784F0700004763715968
:1002A0004D677300007F7F41410000000103060C91
:1002B000183060000041417F7F000000080C0603F9
:1002C000060C08008080808080808080000003070A
:1002D00004000000207454543C784000417F3F48A3
:1002E00048783000387C44446C2800003078484915
:1002F0003F7F4000387C54545C180000487E7F49A2
:100300000302000098BCA4A4F87C0400417F7F088D
:10031000047C780000447D7D4000000060E0808027
:10032000FD7D0000417F7F10386C440000417F7FDD
:10033000400000007C7C18381C7C78007C7C040425
:100340007C780000387C44447C38000084FCF8A4AD
:10035000243C1800183C24A4F8FC8400447C784C0D
:10036000041C1800485C54547424000000043E7FB0
:10037000442400003C7C40403C7C40001C3C6060CD
:100380003C1C00003C7C7038707C3C00446C381095
:10039000386C44009CBCA0A0FC7C00004C64745CE5
:1003A0004C64000008083E774141000000000077DF
:1003B000770000004141773E080800000203010376
:1003C0000203010011241FBECFEFD8E0DEBFCDBF76
:1003D00012E0A0E0B1E0EAE1F0E202C005900D9287
:1003E000A63EB107D9F724E0A6EEB2E001C01D9207
:1003F000AC34B207E1F70E94360A0C940B100C944F
:100400000000EF92FF920F931F93CF93DF932A98F0
:10041000EC018C01085F1F4F7E0189810E946805F5
:100420002296F70180810E946805C017D107A1F7C5
:100430002A9ADF91CF911F910F91FF90EF9008952D
:10044000DF92EF92FF920F931F93CF93DF93CDB77D
:10045000DEB728970FB6F894DEBF0FBECDBFD82EFB
:100460007B0101E010E0F70121917F01902F8827A7
:10047000822BFAEADF1209C09A8389839C838B83DB
:100480009E838D8398878F830EC0FE01319620E076
:10049000D21202C0AC0102C040E050E0419351933F
:1004A0002F5F2430A9F7CE0101960E9401020F5F51
:1004B0001F4F09301105B9F628960FB6F894DEBF24
:1004C0000FBECDBFDF91CF911F910F91FF90EF90A5
:1004D000DF900895CF93DF93CDB7DEB728970FB69F
:1004E000F894DEBF0FBECDBF20E030E0362F242BC6
:1004F0008A3A49F43A8329833C832B833E832D83B4
:1005000038872F830EC0FE01319690E0891302C018
:10051000A90102C040E050E0419351939F5F9430A5
:10052000A9F7CE0101960E94010228960FB6F89411
:10053000DEBF0FBECDBFDF91CF91089541E06CE0EB
:1005400070E08AEA0E946A0247E06BE070E08AEAA3
:100550000E946A0240E06AE070E08AEA0E946A0251
:1005600040E069E070E08AEA0E946A0240E06FE0E1
:1005700070E08AEA0C946A020F931F93CF93DF9383
:10058000082F14E0C1E0D0E040E0BE01802F0E94BF
:100590006A022196C930D105B9F7115099F7DF9158
:1005A000CF911F910F9108958F929F92AF92BF921A
:1005B000CF92DF92EF92FF920F931F93CF93DF932F
:1005C000CDB7DEB7A0970FB6F894DEBF0FBECDBF94
:1005D0006C0110E0EE24E394F12C812F880F880F3A
:1005E000880F90E061E070E06C0F7D1F680F791F4D
:1005F000FB0120E030E00896922E0E2D022E01C065
:10060000000F0A94EAF75601A80EB91E40E050E028
:10061000D5018E905D01A82DA023B0E0092C02C069
:10062000B595A7950A94E2F7042E01C0AA0F0A9483
:10063000EAF7A1110AC0D701042E01C0AA0F0A943B
:10064000EAF7A095B081AB2302C0B081AB2BA083A9
:100650004F5F5F4F48305105D9F62F5F3F4F3196BE
:100660002830310549F6812F0E9420021F5F143087
:1006700009F0B3CFA0960FB6F894DEBF0FBECDBF82
:10068000DF91CF911F910F91FF90EF90DF90CF906E
:10069000BF90AF909F908F900895FC010190002033
:1006A000E9F731979F01281B390BC90108958F92F3
:1006B0009F92AF92BF92CF92DF92EF92FF920F93F1
:1006C0001F93CF93DF934901C0E0D0E0C617D7074F
:1006D00059F1DE0123E0AA0FBB1F2A95E1F78A0139
:1006E0000A0F1B1F7D0128E0E20EF11CAE15BF05AD
:1006F000C0F4FC01B080640128E0B29EC00CD11CA3
:100700001124F601FA955F016D01F7E0CF22DD2497
:10071000F501EC0DFD1DD490F801D1928F011196D9
:10072000E5CF21960196D2CFDF91CF911F910F9106
:10073000FF90EF90DF90CF90BF90AF909F908F9001
:100740000895CF92DF92EF92FF920F931F93CF9372
:10075000DF93CDB7DEB78C01CDB6DEB6675F7F4FD6
:100760008DB79EB7861B970B0FB6F8949EBF0FBE32
:100770008DBFEDB7FEB731967F01EDB7FEB71182A1
:1007800066E271E0C7010E94350C66E271E0C801C3
:100790000E94350CB801C7010E94350CB701C80191
:1007A0000E94490C0FB6F894DEBE0FBECDBEDF919D
:1007B000CF911F910F91FF90EF90DF90CF90089510
:1007C0004F925F926F927F928F929F92AF92BF9261
:1007D000CF92DF92EF92FF920F931F93CF93DF930D
:1007E000CDB7DEB7C454D1090FB6F894DEBF0FBE43
:1007F000CDBF88E0EEE1F1E0DE01DD9601900D92E3
:100800008A95E1F7A2ECB3E0FD0101900020E9F741
:100810003197E25CF340F79718F08BE291E028C142
:100820007E0123E3E20EF11C8AE0F70111928A9522
:10083000E9F78E010F5F1F4F82E3F80111928A954D
:10084000E9F71F930F93FF92EF9289E391E09F9353
:100850008F93BF93AF930E946D0C0FB6F894DEBFD9
:100860000FBECDBF813009F054C06FE371E082EC60
:1008700093E00E94400C892B19F482E090E017C0AD
:1008800062E471E082EC93E00E94400C892B29F431
:1008900010921D0110921C01B7C069EF71E082EC4B
:1008A00093E00E94400C892B39F481E090E0909312
:1008B0001D0180931C01A8C065E471E082EC93E007
:1008C0000E94400C892B19F483E090E0F0CF69E49A
:1008D00071E082EC93E00E94400C892B09F494C0F3
:1008E0006EE471E082EC93E00E94400C892B09F0E9
:1008F000B3C040E0E42E41E0F42EF70181919191E4
:100900007F010E94BE05F4E1EF16F1E0FF06A9F7B2
:100910007BC0823009F078C063E571E0C7010E94B6
:10092000400C892B71F465EC73E085EF92E00E9436
:10093000490C85EF92E00E94BE0581E0809336036A
:1009400063C066E571E0C7010E94400C892B09F085
:1009500043C0F80101900020E9F73197E01BF10B4B
:10096000379760F4C8010E940E0C6B017C01673B55
:1009700029E9720723E08207910518F089E591E0E3
:100980003BC034E6432E512C612C712CA301920103
:100990000E94CE0B49015A016B3371058105910507
:1009A00018F083E891E064C0862F0E94BA07C50161
:1009B000B401A30192010E94CE0B862F0E94F90779
:1009C000C701B60120E137E240E050E00E94CE0BC3
:1009D000822F0E94380818C068E971E0C7010E94A0
:1009E000400C892BA1F4C8010E94F00B26EF280FC0
:1009F0002B3528F08BE991E00E94BE0530C0992785
:100A0000909317018093160180E090E02AC06EEA6F
:100A100071E0C7010E94400C892BF1F461EB71E099
:100A2000C8010E94400C892B39F480E190E090933A
:100A3000EF028093EE02E8CFC8010E94F00B8031F4
:100A400070F41092EF021092EE02482F6AE070E00C
:100A50008AEA0E946A02D8CF81E090E002C082E078
:100A600090E0880F991FF801E80FF91F84AD95AD4C
:100A70000E94BE05CC5BDF4F0FB6F894DEBF0FBE01
:100A8000CDBFDF91CF911F910F91FF90EF90DF903D
:100A9000CF90BF90AF909F908F907F906F905F901E
:100AA0004F90089584B18C6284B92A9A1CBC8CB58D
:100AB00080618CBD8CB58CBD8DB581608DBD8CB5D4
:100AC0008CBD8CB58F7D8CBD8CB580648CBD08953C
:100AD0008EBD0DB407FEFDCF08950DB407FEFDCF0A
:100AE0008EB50895E4E6F0E080818D7F808387E60F
:100AF00090E09093C5008093C400E2ECF0E0808128
:100B00008660808388E98093C10008951F920F92C8
:100B10000FB60F9211248F939F93EF93FF938091C1
:100B2000C6008D3011F18A3081F48091C10080932C
:100B3000C100E0914003F0E0EE53FC4F10821092B0
:100B4000400381E08093350310C0E091400391E0C1
:100B50009E0F90934003F0E0EE53FC4F8083809112
:100B60004003823310F010924003FF91EF919F9168
:100B70008F910F900FBE0F901F901895CF93DF931A
:100B80002091E6022111FCCFDC01C2E4D3E0FE019A
:100B9000E254F3408D91882311F08993F8CFEE5BF6
:100BA000FC4F8AE08083118210924103E09141035F
:100BB000F0E0EE5BFC4F80818093C60080914103A2
:100BC0008F5F8093410381E08093E6028091C100B2
:100BD00080668093C100DF91CF9108951F920F929C
:100BE0000FB60F9211248F93EF93FF93E1ECF0E097
:100BF00080818F7B80831092E602FF91EF918F912D
:100C00000F900FBE0F901F9018951F920F920FB666
:100C10000F9211248F93EF93FF938091E602882324
:100C2000A9F0E0914103F0E0EE5BFC4F8081882366
:100C300069F0E091410381E08E0F80934103F0E081
:100C4000EE5BFC4F80818093C60005C08091C1009F
:100C50008F7D8093C100FF91EF918F910F900FBE18
:100C60000F901F901895ECE7F0E0808180668083FC
:100C7000EAE7F0E0808188608083808187688083F4
:100C800008951F920F920FB60F9211248F939F9386
:100C9000EF93FF93E091E70281E08E0F8093E702EC
:100CA000F0E090917900E051FD4F9083843029F479
:100CB00081E0809334031092E702FF91EF919F91BE
:100CC0008F910F900FBE0F901F901895E4E6F0E003
:100CD00080818F77808388E48093B800ECEBF0E02C
:100CE00080818560808308959091E8029111FCCF06
:100CF000880F8093440460934B04509346044093C0
:100D0000450430934804209347041092EA0210925D
:100D1000E90210924A041092490481E08093E802AB
:100D20008091BC00806A8093BC008091E8028111B0
:100D3000FCCF81E008959091E8029111FCCF880FDB
:100D400081608093440460934B0450934304409328
:100D5000420430934804209347041092EA02109210
:100D6000E90281E090E090934A04809349048093E3
:100D7000E8028091BC00806A8093BC008091E80208
:100D80008111FCCF81E008951F920F920FB60F9250
:100D900011242F933F934F935F938F939F93EF93E0
:100DA000FF938091B900883209F158F48031B1F095
:100DB000883189F0883009F08DC0809144048E7F9D
:100DC0000FC0803509F442C0883509F469C0803409
:100DD00009F080C081C080914B0435C080914404EB
:100DE0008093BB008091BC008F7D57C080914904E7
:100DF00090914A048130910521F48091BC00806A71
:100E00006EC0892B09F06DC02091E9023091EA0291
:100E100080914704909148042817390708F055C07D
:100E200020914504309146048091E9029091EA02B4
:100E3000AC014F5F5F4F5093EA024093E902F90122
:100E4000E80FF91F80818093BB0046C02091E90222
:100E50003091EA028091470490914804281739079D
:100E6000C8F440914204509143048091E90290916A
:100E7000EA029C012F5F3F4F3093EA022093E90280
:100E80002091BB00FA01E80FF91F20838091BC007C
:100E9000806403C08091BC008F7B8093BC001CC029
:100EA00040914204509143048091E9029091EA02FA
:100EB0009C012F5F3F4F3093EA022093E90220917B
:100EC000BB00FA01E80FF91F20838091BC0080610C
:100ED0008093BC001092E8028091BC0080688093EF
:100EE000BC00FF91EF919F918F915F914F913F9146
:100EF0002F910F900FBE0F901F901895CF93DF93F7
:100F0000CDB7DEB728970FB6F894DEBF0FBECDBFC2
:100F1000AE014F5F5F4F88E0FA0111928A95E9F7C1
:100F200028E030E060E088E60E94740628960FB65C
:100F3000F894DEBF0FBECDBFDF91CF910895CF9360
:100F4000DF931F92CDB7DEB7882341F080E8898315
:100F500021E030E0AE014F5F5F4F04C021E030E0A0
:100F600040E050E060E088E60E9474060F90DF9158
:100F7000CF910895CF93DF931F92CDB7DEB78B3318
:100F8000A0F46AE00E94AE0B292F30E1839FC001DC
:100F90001124822B898321E030E0AE014F5F5F4F47
:100FA00060E088E60E94740601C080E00F90DF9147
:100FB000CF910895CF93DF931F92CDB7DEB71982FB
:100FC00021E030E0AE014F5F5F4F60E088E60E94B5
:100FD0009B069981892F8077869586958695282FFF
:100FE000220F220F820F9F70890F0F90DF91CF91F8
:100FF0000895CF93DF931F92CDB7DEB78C33A0F463
:101000006AE00E94AE0B292F30E1839FC0011124BA
:10101000822B898321E030E0AE014F5F5F4F61E0BA
:1010200088E60E94740601C080E00F90DF91CF91A6
:101030000895CF93DF931F92CDB7DEB7198221E0D9
:1010400030E0AE014F5F5F4F61E088E60E949B0693
:101050009981892F8077869586958695282F220FEE
:10106000220F820F9F70890F0F90DF91CF9108950B
:10107000CF93DF931F92CDB7DEB78831A0F46AE03B
:101080000E94AE0B292F30E1839FC0011124822BD7
:10109000898321E030E0AE014F5F5F4F62E088E678
:1010A0000E94740601C080E00F90DF91CF910895F7
:1010B000CF93DF931F92CDB7DEB7198221E030E0E6
:1010C000AE014F5F5F4F62E088E60E949B06998108
:1010D000892F8073869586958695282F220F220F5B
:1010E000820F9F70890F0F90DF91CF910895CF935A
:1010F000DF931F92CDB7DEB789838150873050F4DC
:1011000021E030E0AE014F5F5F4F63E088E60E9470
:10111000740601C080E00F90DF91CF910895CF93C6
:10112000DF931F92CDB7DEB7803270F46AE00E9481
:10113000AE0B998321E030E0AE014F5F5F4F64E07A
:1011400088E60E94740601C080E00F90DF91CF9185
:101150000895EF92FF921F93CF93DF93CDB7DEB741
:101160002C970FB6F894DEBF0FBECDBF362F2AE006
:10117000622F0E94AE0B89879A87832F0E94AE0B45
:101180008B879C877E0189E0E80EF11C10E0F70157
:1011900041917F0130913003DE011196F8E04F9FBD
:1011A000A001112480E090E0BD01282FFC01E40F94
:1011B000F51FEC58FF4FE491123010F0E695E695DC
:1011C000EC932B7F2150223070F4113029F433231B
:1011D00051F02C91212706C0123029F4332319F045
:1011E0002C9120582C930196119688309105E9F6A0
:1011F000812F0E9420021F5F143049F62C960FB6F3
:10120000F894DEBF0FBECDBFDF91CF911F91FF904D
:10121000EF900895BF92CF92DF92EF92FF920F93DB
:101220001F93CF93DF93CDB7DEB72A970FB6F8940D
:10123000DEBF0FBECDBF6AE00E94AE0B89879A87E2
:101240007E0189E0E80EF11CD12CF70121917F018C
:101250008E010F5F1F4FF8E02F9F90011124D801DE
:1012600080E090E0B02EC12EFC01E20FF31FEC589D
:10127000FF4FE491ED93019688309105A9F7B801ED
:101280008D2D0E942002D394A2E0DA12DECF80E0FE
:1012900090E0FC01EC53FF4FE491D801ED938D01F8
:1012A000019688309105A9F76B2D7C2D83E00E9473
:1012B000200282E00E94BC022A960FB6F894DEBF9C
:1012C0000FBECDBFDF91CF911F910F91FF90EF9097
:1012D000DF90CF90BF9008951F920F920FB60F929C
:1012E00011245F936F937F938F939F93AF93BF93DB
:1012F00080913E0390913F03019690933F0380932A
:101300003E0380913E0390913F03609114017091E0
:1013100015010E94BA0B892B19F481E080933103E7
:1013200080913E0390913F036091160170911701E7
:101330000E94BA0B892B19F481E0809332038091CB
:101340003E0390913F0360911801709119010E9432
:10135000BA0B892B19F481E08093330380913E030B
:1013600090913F0360911A0170911B010E94BA0B8A
:10137000892B59F48091EE029091EF02409729F465
:1013800080917A00806480937A00BF91AF919F91A1
:101390008F917F916F915F910F900FBE0F901F9073
:1013A00018951F920F920FB60F9211242F933F930F
:1013B0008F939F9380913E0390913F032091380338
:1013C00030913903821B930B0297D0F04F9918C0CC
:1013D00080911C0190911D018130910559F038F0E8
:1013E000029741F410921D0110921C0109C081E086
:1013F00090E002C082E090E090931D0180931C0178
:1014000080913E0390913F0390933903809338037A
:101410009F918F913F912F910F900FBE0F901F9032
:1014200018951F920F920FB60F9211240F900FBEB6
:101430000F901F9018951F920F920FB60F921124C4
:101440008F934A9907C080913D038F5F80933D033E
:10145000289A06C080913D03815080933D032898CF
:101460008F910F900FBE0F901F901895CF93DF9321
:10147000CDB7DEB7CB50D2400FB6F894DEBF0FBE6B
:10148000CDBF0E9452050E9472050E9466060E940E
:1014900033061092B000109270001092B10080914B
:1014A000B00082608093B000809170008260809371
:1014B00070008CE78093B3000E949E028AEA0E942B
:1014C000BC0283B7817F866083BF83B7816083BF9F
:1014D0007894209A28988AB18AB9809168008460AB
:1014E0008093680080916D00806880936D0080918A
:1014F00069008F60809369008DB383608DBB80E04D
:1015000090E00E94B10F8C01AC0162E070E0CE016E
:101510008F529E4F0E94A10FE1EDF1E0EC0FFD1FF5
:10152000E00FF11F1082B801CE018F529E4F0E9432
:10153000A103CE018F529E4F0E944D038C012CECD3
:1015400030E0AE014F5F5F4FBC01CE018F529E4F26
:101550000E94570393E0000F111F9A95E1F7015283
:1015600011098091B10085608093B100BB24B394D0
:1015700025E5E22EF12CCE0101966C01080F191F12
:10158000809132038823A1F080911C0190911D016C
:10159000029771F4C016D10619F4CE0101966C01C0
:1015A000C6010E94D4029FEFC91AD90A10923203D1
:1015B00080913103882309F43FC080911C019091F0
:1015C0001D01892B31F080911C0190911D01019723
:1015D00099F580901C0190901D010E9458088093FD
:1015E000EB020E9419088093EC020E94DA079091A6
:1015F000ED02891739F08093ED02809130038B253D
:10160000809330038114910429F46091EC0280915D
:10161000EB0208C081E08816910439F46091ED0274
:101620008091EC020E94A90807C093E089169104FA
:1016300019F489E10E940A09109231038091330361
:10164000882331F080913D030E940A0910923303F0
:10165000809134038823D1F020E030E080E090E0F6
:10166000F901E051FD4F4081840F911D2F5F3F4FE5
:1016700025303105A9F7B7010E94BA0B462F6AE061
:1016800070E08AEA0E946A02109234038091350366
:10169000882349F00E94E003109235038091C10035
:1016A00080698093C10080913603882309F468CF54
:1016B00080911C0190911D01029719F48AEA0E9401
:1016C000BC028091B1008093B100DFB6F89485EF41
:1016D00092E00E944D038C01AC0162E070E085EF66
:1016E00092E00E94B70FB80180E090E00E94CF0F17
:1016F000A80162E070E0CE018F529E4F0E94A10FC0
:10170000E1EDF1E0EC0FFD1FE00FF11F1082B801D9
:10171000CE018F529E4F0E94A103CE018F529E4F49
:101720000E944D038C012CEC30E0AE014F5F5F4F07
:10173000BC01CE018F529E4F0E94570383E0000FE1
:10174000111F8A95E1F70152110910923603DFBE8D
:101750008091B10085608093B1000DCF991B79E035
:1017600004C0991F961708F0961B881F7A95C9F731
:1017700080950895AA1BBB1B51E107C0AA1FBB1F80
:10178000A617B70710F0A61BB70B881F991F5A950D
:10179000A9F780959095BC01CD010895A1E21A2E7C
:1017A000AA1BBB1BFD010DC0AA1FBB1FEE1FFF1F05
:1017B000A217B307E407F50720F0A21BB30BE40B55
:1017C000F50B661F771F881F991F1A9469F760959C
:1017D0007095809590959B01AC01BD01CF01089556
:1017E000FC0188279927E89421912032E9F32930D8
:1017F00010F02E30C8F32B3241F02D3239F46894BA
:1018000004C00E94650C820F911D219120532A3043
:10181000C0F31EF4909581959F4F08951F93FC018E
:1018200099278827BC01E89411911032E9F3193007
:1018300010F01E30C8F31B3251F01D3249F4689489
:1018400006C00E94500C610F711D811D911D1191E8
:1018500010531A30B0F33EF49095809570956195D1
:101860007F4F8F4F9F4F1F910895FB01DC010D901B
:101870000020E9F7119701900D920020E1F70895FB
:10188000FB01DC018D91019080190110D9F3990BB6
:101890000895FB01DC0101900D920020E1F708950D
:1018A000592F482F372F262F660F771F881F991F14
:1018B000660F771F881F991F620F731F841F951F64
:1018C000660F771F881F991F08957AE0979F902DC4
:1018D000879F802D910D11240895AEE0B0E0E3E7DD
:1018E000FCE00C94E40F85E08C838B899C899A83BF
:1018F0008983AE01495E5F4F6D897E89CE01019675
:101900000E94220E2E96E2E00C94001020FD09C0E9
:10191000FC0123FD05C022FF02C073836283518353
:101920004083089544FD17C046FD17C0AB01BC01BC
:10193000DA01FB01AA0FBB1FEE1FFF1F1094D1F7A6
:101940004A0F5B1F6E1F7F1FCB01BA01660F771F07
:10195000881F991F09C033E001C034E0660F771F6C
:10196000881F991F3150D1F7620F711D811D911D84
:1019700008950F931F93CF93DF938C01C8010E94AA
:10198000470FEC0197FD08C00E94330F892BB1F778
:10199000B801CE010E94850FCE01DF91CF911F913A
:1019A0000F9108958F929F92AF92BF92EF92FF9204
:1019B0000F931F93CF93DF938C01D62F7A01B22E12
:1019C0000E94470F9C0133272B32310531F02D3215
:1019D000310561F48B2D8068B82ED15011F480E070
:1019E00068C0C8010E94470F97FDF9CFCB2DCD7F6E
:1019F0002B2D207309F58033F9F4AA24AA94AD0E97
:101A000009F443C0C8010E94470F97FD3EC09C01E6
:101A10002F7D33272835310549F4C264D250A9F10E
:101A2000C8010E94470F97FF07C02FC0B6FE02C033
:101A3000C26001C0C261DA2D812C912C540120EDCD
:101A4000280F283080F0C4FF04C0B8010E94850F21
:101A500019C02A3040F0C6FFF8CF2F7D3FEE320F7D
:101A6000363098F727504C2FC501B4010E94920CD4
:101A70004B015C01C260D15059F0C8010E94470F70
:101A800097FFDDCFC1FD04C0AACF812C912C54015A
:101A9000C7FF08C0B094A09490948094811C911CBE
:101AA000A11CB11C2C2FB501A401C7010E94860CFA
:101AB00081E0DF91CF911F910F91FF90EF90BF9048
:101AC000AF909F908F900895A0E2B0E0EAE6FDE02D
:101AD0000C94D70F5C01962E7A01F9018E010F5FED
:101AE0001F4F680180E2D8011D928A95E9F7D50160
:101AF00013968C9080E090E0612C712C30E061E0D6
:101B000070E083FC259183FE21918F01522E2111DB
:101B100003C080E090E092C02E3511F4009751F19F
:101B2000432F50E0481759073CF42D3559F12D3219
:101B300019F4772009F103C0772009F46AC0452D14
:101B4000469546954695D601A40FB11D452D477083
:101B50008B0102C0000F111F4A95E2F7A8015C91AA
:101B6000452B4C93651459F0561410F45394E7CF59
:101B70005A94E5CF31E004C07724739401C0712CEE
:101B80000196BFCF772019F08E8180628E8331114C
:101B900003C08824839417C0F6019E012F5D3F4F38
:101BA0008081809581932E173F07D1F7F2CFE11402
:101BB000F10429F0D7018C93F70131967F019A94B3
:101BC000812C9920F9F0C5010E94470F97FD18C09C
:101BD000FC01FF2723E0F595E7952A95E1F7EC0D49
:101BE000FD1D208130E0AC014770552702C03595BE
:101BF00027954A95E2F720FDDACFB5010E94850FBF
:101C0000811087CFE114F10411F0D7011C92C801B3
:101C100015C0422F469546954695D601A40FB11D95
:101C2000422F47708B0102C0000F111F4A95E2F747
:101C3000A8015C91452B4C93622EA2CFA096EFE0B9
:101C40000C94F30FA0E0B0E0E8E2FEE00C94D70FB4
:101C50006C01EB015A01FC0117821682512CF6012E
:101C6000E380FE01E3FC8591E3FE8191182FEF01F3
:101C7000882309F4EEC090E00E94330F892B21F0F5
:101C8000C6010E94B90CEBCF153241F4FE01E3FC12
:101C90001591E3FE1191EF01153281F4C6010E9406
:101CA000470F97FDD4C0412F50E09C0133272417E4
:101CB0003507A9F2B6010E94850FCBC01A3239F45C
:101CC000E3FC1591E3FE1191EF0101E001C000E09A
:101CD000F12C20ED210F2A3080F402606F2D70E08E
:101CE00080E090E040E20E94920CF62EFE01E3FCC0
:101CF0001591E3FE1191EF01ECCF01FF03C0F1104C
:101D000003C0A7C0FF24FA94183619F01C3651F00E
:101D100010C0FE01E3FC1591E3FE1191EF011836AE
:101D200041F408600460FE01E3FC1591E3FE1191AB
:101D3000EF01112309F48DC0612F70E088E690E077
:101D40000E943C0F892B09F484C000FD07C0F501F7
:101D500080809180C50102965C0102C0812C912C8B
:101D60001E3651F4F6014681578160E070E0202F65
:101D7000C4010E94860C73CF1336A9F401FD02C082
:101D8000FF24F394C6010E94470F97FD60C08114A1
:101D9000910429F0F4018083C40101964C01FA9466
:101DA000F110F0CF50C01B3559F49E01A4016F2DE6
:101DB000C6010E94640DEC01892B09F044C03EC0AD
:101DC000C6010E94B90C97FD42C01F3661F128F48C
:101DD000143639F1193651F128C0133771F015371F
:101DE00001F123C08114910429F0F4016082C4013F
:101DF00001964C01FA94FF2071F0C6010E94470F32
:101E00003C0197FD08C00E94330F892B59F3B6019E
:101E1000C3010E94850F81149104A9F0F40110827E
:101E200012C0006203C0006101C00064202FA40141
:101E30006F2DC6010E94D20C811105C0F60183816D
:101E4000807329F406C000FD0ACF539408CF5520B3
:101E500019F0852D90E002C08FEF9FEFCDB7DEB770
:101E6000EFE00C94F30F91110C949E0F803219F057
:101E700089508550C8F70895FC010590061621F099
:101E80000020D9F7C00108953197CF010895CF936D
:101E9000DF93EC012B8120FF33C026FF0AC02F7B8C
:101EA0002B838E819F8101969F838E838A8190E010
:101EB00029C022FF0FC0E881F9818081082E000C23
:101EC000990B009719F420622B831AC03196F9837D
:101ED000E8830EC0EA85FB85099597FF09C02B8131
:101EE000019611F080E201C080E1822B8B8308C053
:101EF0002E813F812F5F3F4F3F832E83992702C062
:101F00008FEF9FEFDF91CF910895FB01238120FF99
:101F100012C026FD10C08F3F3FEF930761F0828310
:101F20002F7D206423832681378121503109378317
:101F30002683992708958FEF9FEF08959927882783
:101F40000895DC01CB01FC01F999FECF06C0F2BD7A
:101F5000E1BDF89A319600B40D9241505040B8F767
:101F60000895A8E1B0E042E050E00C94A30FDC013A
:101F7000CB0103C02D910E94C20F41505040D0F7B9
:101F80000895262FF999FECF1FBA92BD81BD20BDBD
:101F90000FB6F894FA9AF99A0FBE019608950E9426
:101FA000C10F272F0C94C20F2F923F924F925F9236
:101FB0006F927F928F929F92AF92BF92CF92DF9259
:101FC000EF92FF920F931F93CF93DF93CDB7DEB7BE
:101FD000CA1BDB0B0FB6F894DEBF0FBECDBF099452
:101FE0002A88398848885F846E847D848C849B84A9
:101FF000AA84B984C884DF80EE80FD800C811B81B7
:10200000AA81B981CE0FD11D0FB6F894DEBF0FBEE5
:0A201000CDBFED010895F894FFCF55
:10201A00D601E901FC011302220242026E02900279
:10202A00B202CB0264001E00B80B88130100B6018D
:10203A00B901C7012B012020202000544F204D5503
:10204A00434820494E505554002573202573007388
:10205A006C0073680073747000746573740068654B
:10206A006C7000756C007574006578616D706C65D4
:10207A003A207574203132333030302C2073657435
:10208A00732074696D6520746F2031323A33303AA7
:10209A003030006D6178207365636F6E64732076EB
:1020AA00616C75652035380075730061636365700E
:1020BA0074203130202D20313030206D730075624C
:1020CA00006175746F004F4B0057524F4E475F4384
:1020DA004F4D4D414E440057524F4E475F41524774
:1020EA00554D454E54007368202D20636C6F636B09
:1020FA00206868203A206D6D007373202D20636C70
:10210A006F636B206D6D203A2073730073747020B7
:10211A002D2074656D7065726174757265206D6FBE
:10212A00646500736C202D206C696E65206D6F6488
:10213A0065007574202D207570646174652074695A
:10214A006D652E207574205B6868206D6D20737331
:10215A005D007562202D207570646174652062725D
:10216A00696768746E6573732E207562205B61758A
:10217A00746F5D206F72205B302D31355D00757391
:10218A00202D20757064617465206C696E652073FA
:10219A00706565642E207573205B312D31305D00CA
:1021AA00756C202D20757064617465206D6573737C
:1021BA006167652E20756C205B6D65737361676559
:1021CA005D0074657374202D206C696768747320D0
:1021DA00616C6C2070616E656C730068656C702050
:1021EA002D2073686F777320616C6C20636F6D6D3F
:0621FA00616E6473000039
:00000001FF
